{
  "_format": "hh-sol-artifact-1",
  "contractName": "IDEO",
  "sourceName": "contracts/IDEO.sol",
  "abi": [
    {
      "inputs": [
        {
          "internalType": "string",
          "name": "_tokenName",
          "type": "string"
        },
        {
          "internalType": "string",
          "name": "_tokenSymbol",
          "type": "string"
        },
        {
          "internalType": "string",
          "name": "_hiddenMetadataUri",
          "type": "string"
        }
      ],
      "stateMutability": "nonpayable",
      "type": "constructor"
    },
    {
      "inputs": [],
      "name": "ApprovalCallerNotOwnerNorApproved",
      "type": "error"
    },
    {
      "inputs": [],
      "name": "ApprovalQueryForNonexistentToken",
      "type": "error"
    },
    {
      "inputs": [],
      "name": "ApprovalToCurrentOwner",
      "type": "error"
    },
    {
      "inputs": [],
      "name": "ApproveToCaller",
      "type": "error"
    },
    {
      "inputs": [],
      "name": "BalanceQueryForZeroAddress",
      "type": "error"
    },
    {
      "inputs": [],
      "name": "MintToZeroAddress",
      "type": "error"
    },
    {
      "inputs": [],
      "name": "MintZeroQuantity",
      "type": "error"
    },
    {
      "inputs": [],
      "name": "OwnerQueryForNonexistentToken",
      "type": "error"
    },
    {
      "inputs": [],
      "name": "TransferCallerNotOwnerNorApproved",
      "type": "error"
    },
    {
      "inputs": [],
      "name": "TransferFromIncorrectOwner",
      "type": "error"
    },
    {
      "inputs": [],
      "name": "TransferToNonERC721ReceiverImplementer",
      "type": "error"
    },
    {
      "inputs": [],
      "name": "TransferToZeroAddress",
      "type": "error"
    },
    {
      "anonymous": false,
      "inputs": [
        {
          "indexed": true,
          "internalType": "address",
          "name": "owner",
          "type": "address"
        },
        {
          "indexed": true,
          "internalType": "address",
          "name": "approved",
          "type": "address"
        },
        {
          "indexed": true,
          "internalType": "uint256",
          "name": "tokenId",
          "type": "uint256"
        }
      ],
      "name": "Approval",
      "type": "event"
    },
    {
      "anonymous": false,
      "inputs": [
        {
          "indexed": true,
          "internalType": "address",
          "name": "owner",
          "type": "address"
        },
        {
          "indexed": true,
          "internalType": "address",
          "name": "operator",
          "type": "address"
        },
        {
          "indexed": false,
          "internalType": "bool",
          "name": "approved",
          "type": "bool"
        }
      ],
      "name": "ApprovalForAll",
      "type": "event"
    },
    {
      "anonymous": false,
      "inputs": [
        {
          "indexed": true,
          "internalType": "address",
          "name": "previousOwner",
          "type": "address"
        },
        {
          "indexed": true,
          "internalType": "address",
          "name": "newOwner",
          "type": "address"
        }
      ],
      "name": "OwnershipTransferred",
      "type": "event"
    },
    {
      "anonymous": false,
      "inputs": [
        {
          "indexed": true,
          "internalType": "address",
          "name": "from",
          "type": "address"
        },
        {
          "indexed": true,
          "internalType": "address",
          "name": "to",
          "type": "address"
        },
        {
          "indexed": true,
          "internalType": "uint256",
          "name": "tokenId",
          "type": "uint256"
        }
      ],
      "name": "Transfer",
      "type": "event"
    },
    {
      "inputs": [
        {
          "internalType": "address",
          "name": "to",
          "type": "address"
        },
        {
          "internalType": "uint256",
          "name": "tokenId",
          "type": "uint256"
        }
      ],
      "name": "approve",
      "outputs": [],
      "stateMutability": "nonpayable",
      "type": "function"
    },
    {
      "inputs": [
        {
          "internalType": "address",
          "name": "owner",
          "type": "address"
        }
      ],
      "name": "balanceOf",
      "outputs": [
        {
          "internalType": "uint256",
          "name": "",
          "type": "uint256"
        }
      ],
      "stateMutability": "view",
      "type": "function"
    },
    {
      "inputs": [],
      "name": "cost",
      "outputs": [
        {
          "internalType": "uint256",
          "name": "",
          "type": "uint256"
        }
      ],
      "stateMutability": "view",
      "type": "function"
    },
    {
      "inputs": [
        {
          "internalType": "uint256",
          "name": "tokenId",
          "type": "uint256"
        }
      ],
      "name": "getApproved",
      "outputs": [
        {
          "internalType": "address",
          "name": "",
          "type": "address"
        }
      ],
      "stateMutability": "view",
      "type": "function"
    },
    {
      "inputs": [
        {
          "internalType": "uint256",
          "name": "_mintAmount",
          "type": "uint256"
        }
      ],
      "name": "getPrice",
      "outputs": [
        {
          "internalType": "uint256",
          "name": "",
          "type": "uint256"
        }
      ],
      "stateMutability": "view",
      "type": "function"
    },
    {
      "inputs": [],
      "name": "hiddenMetadataUri",
      "outputs": [
        {
          "internalType": "string",
          "name": "",
          "type": "string"
        }
      ],
      "stateMutability": "view",
      "type": "function"
    },
    {
      "inputs": [
        {
          "internalType": "address",
          "name": "owner",
          "type": "address"
        },
        {
          "internalType": "address",
          "name": "operator",
          "type": "address"
        }
      ],
      "name": "isApprovedForAll",
      "outputs": [
        {
          "internalType": "bool",
          "name": "",
          "type": "bool"
        }
      ],
      "stateMutability": "view",
      "type": "function"
    },
    {
      "inputs": [],
      "name": "maxMintAmountPerTx",
      "outputs": [
        {
          "internalType": "uint256",
          "name": "",
          "type": "uint256"
        }
      ],
      "stateMutability": "view",
      "type": "function"
    },
    {
      "inputs": [],
      "name": "maxSupply",
      "outputs": [
        {
          "internalType": "uint256",
          "name": "",
          "type": "uint256"
        }
      ],
      "stateMutability": "view",
      "type": "function"
    },
    {
      "inputs": [],
      "name": "merkleRoot",
      "outputs": [
        {
          "internalType": "bytes32",
          "name": "",
          "type": "bytes32"
        }
      ],
      "stateMutability": "view",
      "type": "function"
    },
    {
      "inputs": [
        {
          "internalType": "uint256",
          "name": "_mintAmount",
          "type": "uint256"
        }
      ],
      "name": "mint",
      "outputs": [],
      "stateMutability": "payable",
      "type": "function"
    },
    {
      "inputs": [
        {
          "internalType": "uint256",
          "name": "_mintAmount",
          "type": "uint256"
        },
        {
          "internalType": "address",
          "name": "_receiver",
          "type": "address"
        }
      ],
      "name": "mintForAddress",
      "outputs": [],
      "stateMutability": "nonpayable",
      "type": "function"
    },
    {
      "inputs": [],
      "name": "name",
      "outputs": [
        {
          "internalType": "string",
          "name": "",
          "type": "string"
        }
      ],
      "stateMutability": "view",
      "type": "function"
    },
    {
      "inputs": [],
      "name": "owner",
      "outputs": [
        {
          "internalType": "address",
          "name": "",
          "type": "address"
        }
      ],
      "stateMutability": "view",
      "type": "function"
    },
    {
      "inputs": [
        {
          "internalType": "uint256",
          "name": "tokenId",
          "type": "uint256"
        }
      ],
      "name": "ownerOf",
      "outputs": [
        {
          "internalType": "address",
          "name": "",
          "type": "address"
        }
      ],
      "stateMutability": "view",
      "type": "function"
    },
    {
      "inputs": [],
      "name": "paused",
      "outputs": [
        {
          "internalType": "bool",
          "name": "",
          "type": "bool"
        }
      ],
      "stateMutability": "view",
      "type": "function"
    },
    {
      "inputs": [],
      "name": "renounceOwnership",
      "outputs": [],
      "stateMutability": "nonpayable",
      "type": "function"
    },
    {
      "inputs": [],
      "name": "revealed",
      "outputs": [
        {
          "internalType": "bool",
          "name": "",
          "type": "bool"
        }
      ],
      "stateMutability": "view",
      "type": "function"
    },
    {
      "inputs": [
        {
          "internalType": "address",
          "name": "from",
          "type": "address"
        },
        {
          "internalType": "address",
          "name": "to",
          "type": "address"
        },
        {
          "internalType": "uint256",
          "name": "tokenId",
          "type": "uint256"
        }
      ],
      "name": "safeTransferFrom",
      "outputs": [],
      "stateMutability": "nonpayable",
      "type": "function"
    },
    {
      "inputs": [
        {
          "internalType": "address",
          "name": "from",
          "type": "address"
        },
        {
          "internalType": "address",
          "name": "to",
          "type": "address"
        },
        {
          "internalType": "uint256",
          "name": "tokenId",
          "type": "uint256"
        },
        {
          "internalType": "bytes",
          "name": "_data",
          "type": "bytes"
        }
      ],
      "name": "safeTransferFrom",
      "outputs": [],
      "stateMutability": "nonpayable",
      "type": "function"
    },
    {
      "inputs": [
        {
          "internalType": "address",
          "name": "operator",
          "type": "address"
        },
        {
          "internalType": "bool",
          "name": "approved",
          "type": "bool"
        }
      ],
      "name": "setApprovalForAll",
      "outputs": [],
      "stateMutability": "nonpayable",
      "type": "function"
    },
    {
      "inputs": [
        {
          "internalType": "uint256",
          "name": "_cost",
          "type": "uint256"
        }
      ],
      "name": "setCost",
      "outputs": [],
      "stateMutability": "nonpayable",
      "type": "function"
    },
    {
      "inputs": [
        {
          "internalType": "string",
          "name": "_hiddenMetadataUri",
          "type": "string"
        }
      ],
      "name": "setHiddenMetadataUri",
      "outputs": [],
      "stateMutability": "nonpayable",
      "type": "function"
    },
    {
      "inputs": [
        {
          "internalType": "uint256",
          "name": "_maxMintAmountPerTx",
          "type": "uint256"
        }
      ],
      "name": "setMaxMintAmountPerTx",
      "outputs": [],
      "stateMutability": "nonpayable",
      "type": "function"
    },
    {
      "inputs": [
        {
          "internalType": "bytes32",
          "name": "_merkleRoot",
          "type": "bytes32"
        }
      ],
      "name": "setMerkleRoot",
      "outputs": [],
      "stateMutability": "nonpayable",
      "type": "function"
    },
    {
      "inputs": [
        {
          "internalType": "bool",
          "name": "_state",
          "type": "bool"
        }
      ],
      "name": "setPaused",
      "outputs": [],
      "stateMutability": "nonpayable",
      "type": "function"
    },
    {
      "inputs": [
        {
          "internalType": "bool",
          "name": "_state",
          "type": "bool"
        }
      ],
      "name": "setRevealed",
      "outputs": [],
      "stateMutability": "nonpayable",
      "type": "function"
    },
    {
      "inputs": [
        {
          "internalType": "string",
          "name": "_uriPrefix",
          "type": "string"
        }
      ],
      "name": "setUriPrefix",
      "outputs": [],
      "stateMutability": "nonpayable",
      "type": "function"
    },
    {
      "inputs": [
        {
          "internalType": "string",
          "name": "_uriSuffix",
          "type": "string"
        }
      ],
      "name": "setUriSuffix",
      "outputs": [],
      "stateMutability": "nonpayable",
      "type": "function"
    },
    {
      "inputs": [
        {
          "internalType": "bool",
          "name": "_state",
          "type": "bool"
        }
      ],
      "name": "setWhitelistMintEnabled",
      "outputs": [],
      "stateMutability": "nonpayable",
      "type": "function"
    },
    {
      "inputs": [
        {
          "internalType": "bytes4",
          "name": "interfaceId",
          "type": "bytes4"
        }
      ],
      "name": "supportsInterface",
      "outputs": [
        {
          "internalType": "bool",
          "name": "",
          "type": "bool"
        }
      ],
      "stateMutability": "view",
      "type": "function"
    },
    {
      "inputs": [],
      "name": "symbol",
      "outputs": [
        {
          "internalType": "string",
          "name": "",
          "type": "string"
        }
      ],
      "stateMutability": "view",
      "type": "function"
    },
    {
      "inputs": [
        {
          "internalType": "uint256",
          "name": "_tokenId",
          "type": "uint256"
        }
      ],
      "name": "tokenURI",
      "outputs": [
        {
          "internalType": "string",
          "name": "",
          "type": "string"
        }
      ],
      "stateMutability": "view",
      "type": "function"
    },
    {
      "inputs": [],
      "name": "totalSupply",
      "outputs": [
        {
          "internalType": "uint256",
          "name": "",
          "type": "uint256"
        }
      ],
      "stateMutability": "view",
      "type": "function"
    },
    {
      "inputs": [
        {
          "internalType": "address",
          "name": "from",
          "type": "address"
        },
        {
          "internalType": "address",
          "name": "to",
          "type": "address"
        },
        {
          "internalType": "uint256",
          "name": "tokenId",
          "type": "uint256"
        }
      ],
      "name": "transferFrom",
      "outputs": [],
      "stateMutability": "nonpayable",
      "type": "function"
    },
    {
      "inputs": [
        {
          "internalType": "address",
          "name": "newOwner",
          "type": "address"
        }
      ],
      "name": "transferOwnership",
      "outputs": [],
      "stateMutability": "nonpayable",
      "type": "function"
    },
    {
      "inputs": [],
      "name": "uriPrefix",
      "outputs": [
        {
          "internalType": "string",
          "name": "",
          "type": "string"
        }
      ],
      "stateMutability": "view",
      "type": "function"
    },
    {
      "inputs": [],
      "name": "uriSuffix",
      "outputs": [
        {
          "internalType": "string",
          "name": "",
          "type": "string"
        }
      ],
      "stateMutability": "view",
      "type": "function"
    },
    {
      "inputs": [
        {
          "internalType": "address",
          "name": "_owner",
          "type": "address"
        }
      ],
      "name": "walletOfOwner",
      "outputs": [
        {
          "internalType": "uint256[]",
          "name": "",
          "type": "uint256[]"
        }
      ],
      "stateMutability": "view",
      "type": "function"
    },
    {
      "inputs": [
        {
          "internalType": "address",
          "name": "",
          "type": "address"
        }
      ],
      "name": "whitelistClaimed",
      "outputs": [
        {
          "internalType": "bool",
          "name": "",
          "type": "bool"
        }
      ],
      "stateMutability": "view",
      "type": "function"
    },
    {
      "inputs": [
        {
          "internalType": "uint256",
          "name": "_mintAmount",
          "type": "uint256"
        },
        {
          "internalType": "bytes32[]",
          "name": "_merkleProof",
          "type": "bytes32[]"
        }
      ],
      "name": "whitelistMint",
      "outputs": [],
      "stateMutability": "payable",
      "type": "function"
    },
    {
      "inputs": [],
      "name": "whitelistMintEnabled",
      "outputs": [
        {
          "internalType": "bool",
          "name": "",
          "type": "bool"
        }
      ],
      "stateMutability": "view",
      "type": "function"
    },
    {
      "inputs": [],
      "name": "withdraw",
      "outputs": [],
      "stateMutability": "nonpayable",
      "type": "function"
    }
  ],
  "bytecode": "0x60806040526040518060400160405280600481526020017f4944454f000000000000000000000000000000000000000000000000000000008152506002908051906020019062000051929190620003eb565b506040518060400160405280600481526020017f4944454f00000000000000000000000000000000000000000000000000000000815250600390805190602001906200009f929190620003eb565b5060405180602001604052806000815250600c9080519060200190620000c7929190620003eb565b506040518060400160405280600581526020017f2e6a736f6e000000000000000000000000000000000000000000000000000000815250600d908051906020019062000115929190620003eb565b506703782dace9d90000600f5561270f60105560646011556000601260006101000a81548160ff0219169083151502179055506000601260016101000a81548160ff0219169083151502179055506000601260026101000a81548160ff0219169083151502179055503480156200018b57600080fd5b5060405162005558380380620055588339818101604052810190620001b1919062000638565b82828160029080519060200190620001cb929190620003eb565b508060039080519060200190620001e4929190620003eb565b50620001f56200023f60201b60201c565b60008190555050506200021d620002116200024860201b60201c565b6200025060201b60201c565b600160098190555062000236816200031660201b60201c565b505050620007d9565b60006001905090565b600033905090565b6000600860009054906101000a900473ffffffffffffffffffffffffffffffffffffffff16905081600860006101000a81548173ffffffffffffffffffffffffffffffffffffffff021916908373ffffffffffffffffffffffffffffffffffffffff1602179055508173ffffffffffffffffffffffffffffffffffffffff168173ffffffffffffffffffffffffffffffffffffffff167f8be0079c531659141344cd1fd0a4f28419497f9722a3daafe3b4186f6b6457e060405160405180910390a35050565b620003266200024860201b60201c565b73ffffffffffffffffffffffffffffffffffffffff166200034c620003c160201b60201c565b73ffffffffffffffffffffffffffffffffffffffff1614620003a5576040517f08c379a00000000000000000000000000000000000000000000000000000000081526004016200039c9062000752565b60405180910390fd5b80600e9080519060200190620003bd929190620003eb565b5050565b6000600860009054906101000a900473ffffffffffffffffffffffffffffffffffffffff16905090565b828054620003f990620007a3565b90600052602060002090601f0160209004810192826200041d576000855562000469565b82601f106200043857805160ff191683800117855562000469565b8280016001018555821562000469579182015b82811115620004685782518255916020019190600101906200044b565b5b5090506200047891906200047c565b5090565b5b80821115620004975760008160009055506001016200047d565b5090565b6000604051905090565b600080fd5b600080fd5b600080fd5b600080fd5b6000601f19601f8301169050919050565b7f4e487b7100000000000000000000000000000000000000000000000000000000600052604160045260246000fd5b6200050482620004b9565b810181811067ffffffffffffffff82111715620005265762000525620004ca565b5b80604052505050565b60006200053b6200049b565b9050620005498282620004f9565b919050565b600067ffffffffffffffff8211156200056c576200056b620004ca565b5b6200057782620004b9565b9050602081019050919050565b60005b83811015620005a457808201518184015260208101905062000587565b83811115620005b4576000848401525b50505050565b6000620005d1620005cb846200054e565b6200052f565b905082815260208101848484011115620005f057620005ef620004b4565b5b620005fd84828562000584565b509392505050565b600082601f8301126200061d576200061c620004af565b5b81516200062f848260208601620005ba565b91505092915050565b600080600060608486031215620006545762000653620004a5565b5b600084015167ffffffffffffffff811115620006755762000674620004aa565b5b620006838682870162000605565b935050602084015167ffffffffffffffff811115620006a757620006a6620004aa565b5b620006b58682870162000605565b925050604084015167ffffffffffffffff811115620006d957620006d8620004aa565b5b620006e78682870162000605565b9150509250925092565b600082825260208201905092915050565b7f4f776e61626c653a2063616c6c6572206973206e6f7420746865206f776e6572600082015250565b60006200073a602083620006f1565b9150620007478262000702565b602082019050919050565b600060208201905081810360008301526200076d816200072b565b9050919050565b7f4e487b7100000000000000000000000000000000000000000000000000000000600052602260045260246000fd5b60006002820490506001821680620007bc57607f821691505b60208210811415620007d357620007d262000774565b5b50919050565b614d6f80620007e96000396000f3fe60806040526004361061025c5760003560e01c806370a0823111610144578063b767a098116100b6578063db4bec441161007a578063db4bec44146108a4578063e0a80853146108e1578063e75722301461090a578063e985e9c514610947578063efbd73f414610984578063f2fde38b146109ad5761025c565b8063b767a098146107ce578063b88d4fde146107f7578063c87b56dd14610820578063d2cab0561461085d578063d5abeb01146108795761025c565b806394354fd01161010857806394354fd0146106df57806395d89b411461070a578063a0712d6814610735578063a22cb46514610751578063a45ba8e71461077a578063b071401b146107a55761025c565b806370a082311461060e578063715018a61461064b5780637cb64759146106625780637ec4a6591461068b5780638da5cb5b146106b45761025c565b80633ccfd60b116101dd57806351830227116101a157806351830227146104fa5780635503a0e8146105255780635c975abb1461055057806362b99ad41461057b5780636352211e146105a65780636caede3d146105e35761025c565b80633ccfd60b1461042b57806342842e0e14610442578063438b63001461046b57806344a0d68a146104a85780634fdd43cb146104d15761025c565b806316ba10e01161022457806316ba10e01461035a57806316c38b3c1461038357806318160ddd146103ac57806323b872dd146103d75780632eb4a7ab146104005761025c565b806301ffc9a71461026157806306fdde031461029e578063081812fc146102c9578063095ea7b31461030657806313faede61461032f575b600080fd5b34801561026d57600080fd5b50610288600480360381019061028391906138f3565b6109d6565b604051610295919061393b565b60405180910390f35b3480156102aa57600080fd5b506102b3610ab8565b6040516102c091906139ef565b60405180910390f35b3480156102d557600080fd5b506102f060048036038101906102eb9190613a47565b610b4a565b6040516102fd9190613ab5565b60405180910390f35b34801561031257600080fd5b5061032d60048036038101906103289190613afc565b610bc6565b005b34801561033b57600080fd5b50610344610cd1565b6040516103519190613b4b565b60405180910390f35b34801561036657600080fd5b50610381600480360381019061037c9190613c9b565b610cd7565b005b34801561038f57600080fd5b506103aa60048036038101906103a59190613d10565b610d6d565b005b3480156103b857600080fd5b506103c1610e06565b6040516103ce9190613b4b565b60405180910390f35b3480156103e357600080fd5b506103fe60048036038101906103f99190613d3d565b610e1d565b005b34801561040c57600080fd5b50610415610e2d565b6040516104229190613da9565b60405180910390f35b34801561043757600080fd5b50610440610e33565b005b34801561044e57600080fd5b5061046960048036038101906104649190613d3d565b611028565b005b34801561047757600080fd5b50610492600480360381019061048d9190613dc4565b611048565b60405161049f9190613eaf565b60405180910390f35b3480156104b457600080fd5b506104cf60048036038101906104ca9190613a47565b61125c565b005b3480156104dd57600080fd5b506104f860048036038101906104f39190613c9b565b6112e2565b005b34801561050657600080fd5b5061050f611378565b60405161051c919061393b565b60405180910390f35b34801561053157600080fd5b5061053a61138b565b60405161054791906139ef565b60405180910390f35b34801561055c57600080fd5b50610565611419565b604051610572919061393b565b60405180910390f35b34801561058757600080fd5b5061059061142c565b60405161059d91906139ef565b60405180910390f35b3480156105b257600080fd5b506105cd60048036038101906105c89190613a47565b6114ba565b6040516105da9190613ab5565b60405180910390f35b3480156105ef57600080fd5b506105f86114d0565b604051610605919061393b565b60405180910390f35b34801561061a57600080fd5b5061063560048036038101906106309190613dc4565b6114e3565b6040516106429190613b4b565b60405180910390f35b34801561065757600080fd5b506106606115b3565b005b34801561066e57600080fd5b5061068960048036038101906106849190613efd565b61163b565b005b34801561069757600080fd5b506106b260048036038101906106ad9190613c9b565b6116c1565b005b3480156106c057600080fd5b506106c9611757565b6040516106d69190613ab5565b60405180910390f35b3480156106eb57600080fd5b506106f4611781565b6040516107019190613b4b565b60405180910390f35b34801561071657600080fd5b5061071f611787565b60405161072c91906139ef565b60405180910390f35b61074f600480360381019061074a9190613a47565b611819565b005b34801561075d57600080fd5b5061077860048036038101906107739190613f2a565b6119cd565b005b34801561078657600080fd5b5061078f611b45565b60405161079c91906139ef565b60405180910390f35b3480156107b157600080fd5b506107cc60048036038101906107c79190613a47565b611bd3565b005b3480156107da57600080fd5b506107f560048036038101906107f09190613d10565b611c59565b005b34801561080357600080fd5b5061081e6004803603810190610819919061400b565b611cf2565b005b34801561082c57600080fd5b5061084760048036038101906108429190613a47565b611d6e565b60405161085491906139ef565b60405180910390f35b610877600480360381019061087291906140ee565b611ec7565b005b34801561088557600080fd5b5061088e6121df565b60405161089b9190613b4b565b60405180910390f35b3480156108b057600080fd5b506108cb60048036038101906108c69190613dc4565b6121e5565b6040516108d8919061393b565b60405180910390f35b3480156108ed57600080fd5b5061090860048036038101906109039190613d10565b612205565b005b34801561091657600080fd5b50610931600480360381019061092c9190613a47565b61229e565b60405161093e9190613b4b565b60405180910390f35b34801561095357600080fd5b5061096e6004803603810190610969919061414e565b612321565b60405161097b919061393b565b60405180910390f35b34801561099057600080fd5b506109ab60048036038101906109a6919061418e565b6123b5565b005b3480156109b957600080fd5b506109d460048036038101906109cf9190613dc4565b6124e9565b005b60007f80ac58cd000000000000000000000000000000000000000000000000000000007bffffffffffffffffffffffffffffffffffffffffffffffffffffffff1916827bffffffffffffffffffffffffffffffffffffffffffffffffffffffff19161480610aa157507f5b5e139f000000000000000000000000000000000000000000000000000000007bffffffffffffffffffffffffffffffffffffffffffffffffffffffff1916827bffffffffffffffffffffffffffffffffffffffffffffffffffffffff1916145b80610ab15750610ab0826125e1565b5b9050919050565b606060028054610ac7906141fd565b80601f0160208091040260200160405190810160405280929190818152602001828054610af3906141fd565b8015610b405780601f10610b1557610100808354040283529160200191610b40565b820191906000526020600020905b815481529060010190602001808311610b2357829003601f168201915b5050505050905090565b6000610b558261264b565b610b8b576040517fcf4700e400000000000000000000000000000000000000000000000000000000815260040160405180910390fd5b6006600083815260200190815260200160002060009054906101000a900473ffffffffffffffffffffffffffffffffffffffff169050919050565b6000610bd1826114ba565b90508073ffffffffffffffffffffffffffffffffffffffff168373ffffffffffffffffffffffffffffffffffffffff161415610c39576040517f943f7b8c00000000000000000000000000000000000000000000000000000000815260040160405180910390fd5b8073ffffffffffffffffffffffffffffffffffffffff16610c58612699565b73ffffffffffffffffffffffffffffffffffffffff1614158015610c8a5750610c8881610c83612699565b612321565b155b15610cc1576040517fcfb3b94200000000000000000000000000000000000000000000000000000000815260040160405180910390fd5b610ccc8383836126a1565b505050565b600f5481565b610cdf612699565b73ffffffffffffffffffffffffffffffffffffffff16610cfd611757565b73ffffffffffffffffffffffffffffffffffffffff1614610d53576040517f08c379a0000000000000000000000000000000000000000000000000000000008152600401610d4a9061427b565b60405180910390fd5b80600d9080519060200190610d699291906137a1565b5050565b610d75612699565b73ffffffffffffffffffffffffffffffffffffffff16610d93611757565b73ffffffffffffffffffffffffffffffffffffffff1614610de9576040517f08c379a0000000000000000000000000000000000000000000000000000000008152600401610de09061427b565b60405180910390fd5b80601260006101000a81548160ff02191690831515021790555050565b6000610e10612753565b6001546000540303905090565b610e2883838361275c565b505050565b600a5481565b610e3b612699565b73ffffffffffffffffffffffffffffffffffffffff16610e59611757565b73ffffffffffffffffffffffffffffffffffffffff1614610eaf576040517f08c379a0000000000000000000000000000000000000000000000000000000008152600401610ea69061427b565b60405180910390fd5b60026009541415610ef5576040517f08c379a0000000000000000000000000000000000000000000000000000000008152600401610eec906142e7565b60405180910390fd5b6002600981905550600073e451a4bd7ce249a8ce936ef5f0d00dadedba2b6473ffffffffffffffffffffffffffffffffffffffff166064600547610f399190614336565b610f4391906143bf565b604051610f4f90614421565b60006040518083038185875af1925050503d8060008114610f8c576040519150601f19603f3d011682016040523d82523d6000602084013e610f91565b606091505b5050905080610f9f57600080fd5b6000610fa9611757565b73ffffffffffffffffffffffffffffffffffffffff1647604051610fcc90614421565b60006040518083038185875af1925050503d8060008114611009576040519150601f19603f3d011682016040523d82523d6000602084013e61100e565b606091505b505090508061101c57600080fd5b50506001600981905550565b61104383838360405180602001604052806000815250611cf2565b505050565b60606000611055836114e3565b905060008167ffffffffffffffff81111561107357611072613b70565b5b6040519080825280602002602001820160405280156110a15781602001602082028036833780820191505090505b50905060006110ae612753565b90506000805b84821080156110c4575060005483105b1561124f576000600460008581526020019081526020016000206040518060600160405290816000820160009054906101000a900473ffffffffffffffffffffffffffffffffffffffff1673ffffffffffffffffffffffffffffffffffffffff1673ffffffffffffffffffffffffffffffffffffffff1681526020016000820160149054906101000a900467ffffffffffffffff1667ffffffffffffffff1667ffffffffffffffff16815260200160008201601c9054906101000a900460ff1615151515815250509050806040015161123b57600073ffffffffffffffffffffffffffffffffffffffff16816000015173ffffffffffffffffffffffffffffffffffffffff16146111d757806000015191505b8773ffffffffffffffffffffffffffffffffffffffff168273ffffffffffffffffffffffffffffffffffffffff16141561123a578385848151811061121f5761121e614436565b5b602002602001018181525050828061123690614465565b9350505b5b838061124690614465565b945050506110b4565b8395505050505050919050565b611264612699565b73ffffffffffffffffffffffffffffffffffffffff16611282611757565b73ffffffffffffffffffffffffffffffffffffffff16146112d8576040517f08c379a00000000000000000000000000000000000000000000000000000000081526004016112cf9061427b565b60405180910390fd5b80600f8190555050565b6112ea612699565b73ffffffffffffffffffffffffffffffffffffffff16611308611757565b73ffffffffffffffffffffffffffffffffffffffff161461135e576040517f08c379a00000000000000000000000000000000000000000000000000000000081526004016113559061427b565b60405180910390fd5b80600e90805190602001906113749291906137a1565b5050565b601260029054906101000a900460ff1681565b600d8054611398906141fd565b80601f01602080910402602001604051908101604052809291908181526020018280546113c4906141fd565b80156114115780601f106113e657610100808354040283529160200191611411565b820191906000526020600020905b8154815290600101906020018083116113f457829003601f168201915b505050505081565b601260009054906101000a900460ff1681565b600c8054611439906141fd565b80601f0160208091040260200160405190810160405280929190818152602001828054611465906141fd565b80156114b25780601f10611487576101008083540402835291602001916114b2565b820191906000526020600020905b81548152906001019060200180831161149557829003601f168201915b505050505081565b60006114c582612c12565b600001519050919050565b601260019054906101000a900460ff1681565b60008073ffffffffffffffffffffffffffffffffffffffff168273ffffffffffffffffffffffffffffffffffffffff16141561154b576040517f8f4eb60400000000000000000000000000000000000000000000000000000000815260040160405180910390fd5b600560008373ffffffffffffffffffffffffffffffffffffffff1673ffffffffffffffffffffffffffffffffffffffff16815260200190815260200160002060000160009054906101000a900467ffffffffffffffff1667ffffffffffffffff169050919050565b6115bb612699565b73ffffffffffffffffffffffffffffffffffffffff166115d9611757565b73ffffffffffffffffffffffffffffffffffffffff161461162f576040517f08c379a00000000000000000000000000000000000000000000000000000000081526004016116269061427b565b60405180910390fd5b6116396000612ea1565b565b611643612699565b73ffffffffffffffffffffffffffffffffffffffff16611661611757565b73ffffffffffffffffffffffffffffffffffffffff16146116b7576040517f08c379a00000000000000000000000000000000000000000000000000000000081526004016116ae9061427b565b60405180910390fd5b80600a8190555050565b6116c9612699565b73ffffffffffffffffffffffffffffffffffffffff166116e7611757565b73ffffffffffffffffffffffffffffffffffffffff161461173d576040517f08c379a00000000000000000000000000000000000000000000000000000000081526004016117349061427b565b60405180910390fd5b80600c90805190602001906117539291906137a1565b5050565b6000600860009054906101000a900473ffffffffffffffffffffffffffffffffffffffff16905090565b60115481565b606060038054611796906141fd565b80601f01602080910402602001604051908101604052809291908181526020018280546117c2906141fd565b801561180f5780601f106117e45761010080835404028352916020019161180f565b820191906000526020600020905b8154815290600101906020018083116117f257829003601f168201915b5050505050905090565b8060008111801561182c57506011548111155b61186b576040517f08c379a0000000000000000000000000000000000000000000000000000000008152600401611862906144fa565b60405180910390fd5b60105481611877610e06565b611881919061451a565b11156118c2576040517f08c379a00000000000000000000000000000000000000000000000000000000081526004016118b9906145bc565b60405180910390fd5b601260009054906101000a900460ff1615611912576040517f08c379a000000000000000000000000000000000000000000000000000000000815260040161190990614628565b60405180910390fd5b601260019054906101000a900460ff1615611962576040517f08c379a0000000000000000000000000000000000000000000000000000000008152600401611959906146ba565b60405180910390fd5b8161196c8361229e565b6119769190614336565b3410156119b8576040517f08c379a00000000000000000000000000000000000000000000000000000000081526004016119af90614726565b60405180910390fd5b6119c96119c3612699565b83612f67565b5050565b6119d5612699565b73ffffffffffffffffffffffffffffffffffffffff168273ffffffffffffffffffffffffffffffffffffffff161415611a3a576040517fb06307db00000000000000000000000000000000000000000000000000000000815260040160405180910390fd5b8060076000611a47612699565b73ffffffffffffffffffffffffffffffffffffffff1673ffffffffffffffffffffffffffffffffffffffff16815260200190815260200160002060008473ffffffffffffffffffffffffffffffffffffffff1673ffffffffffffffffffffffffffffffffffffffff16815260200190815260200160002060006101000a81548160ff0219169083151502179055508173ffffffffffffffffffffffffffffffffffffffff16611af4612699565b73ffffffffffffffffffffffffffffffffffffffff167f17307eab39ab6107e8899845ad3d59bd9653f200f220920489ca2b5937696c3183604051611b39919061393b565b60405180910390a35050565b600e8054611b52906141fd565b80601f0160208091040260200160405190810160405280929190818152602001828054611b7e906141fd565b8015611bcb5780601f10611ba057610100808354040283529160200191611bcb565b820191906000526020600020905b815481529060010190602001808311611bae57829003601f168201915b505050505081565b611bdb612699565b73ffffffffffffffffffffffffffffffffffffffff16611bf9611757565b73ffffffffffffffffffffffffffffffffffffffff1614611c4f576040517f08c379a0000000000000000000000000000000000000000000000000000000008152600401611c469061427b565b60405180910390fd5b8060118190555050565b611c61612699565b73ffffffffffffffffffffffffffffffffffffffff16611c7f611757565b73ffffffffffffffffffffffffffffffffffffffff1614611cd5576040517f08c379a0000000000000000000000000000000000000000000000000000000008152600401611ccc9061427b565b60405180910390fd5b80601260016101000a81548160ff02191690831515021790555050565b611cfd84848461275c565b611d1c8373ffffffffffffffffffffffffffffffffffffffff16612f85565b8015611d315750611d2f84848484612f98565b155b15611d68576040517fd1a57ed600000000000000000000000000000000000000000000000000000000815260040160405180910390fd5b50505050565b6060611d798261264b565b611db8576040517f08c379a0000000000000000000000000000000000000000000000000000000008152600401611daf906147b8565b60405180910390fd5b60001515601260029054906101000a900460ff1615151415611e6657600e8054611de1906141fd565b80601f0160208091040260200160405190810160405280929190818152602001828054611e0d906141fd565b8015611e5a5780601f10611e2f57610100808354040283529160200191611e5a565b820191906000526020600020905b815481529060010190602001808311611e3d57829003601f168201915b50505050509050611ec2565b6000611e706130f8565b90506000815111611e905760405180602001604052806000815250611ebe565b80611e9a8461318a565b600d604051602001611eae939291906148a8565b6040516020818303038152906040525b9150505b919050565b82600081118015611eda57506011548111155b611f19576040517f08c379a0000000000000000000000000000000000000000000000000000000008152600401611f10906144fa565b60405180910390fd5b60105481611f25610e06565b611f2f919061451a565b1115611f70576040517f08c379a0000000000000000000000000000000000000000000000000000000008152600401611f67906145bc565b60405180910390fd5b601260019054906101000a900460ff16611fbf576040517f08c379a0000000000000000000000000000000000000000000000000000000008152600401611fb69061494b565b60405180910390fd5b600b6000611fcb612699565b73ffffffffffffffffffffffffffffffffffffffff1673ffffffffffffffffffffffffffffffffffffffff16815260200190815260200160002060009054906101000a900460ff1615612053576040517f08c379a000000000000000000000000000000000000000000000000000000000815260040161204a906149b7565b60405180910390fd5b600061205d612699565b60405160200161206d9190614a1f565b6040516020818303038152906040528051906020012090506120d3848480806020026020016040519081016040528093929190818152602001838360200280828437600081840152601f19601f82011690508083019250505050505050600a54836132eb565b612112576040517f08c379a000000000000000000000000000000000000000000000000000000000815260040161210990614a86565b60405180910390fd5b8461211c8661229e565b6121269190614336565b341015612168576040517f08c379a000000000000000000000000000000000000000000000000000000000815260040161215f90614af2565b60405180910390fd5b6001600b6000612176612699565b73ffffffffffffffffffffffffffffffffffffffff1673ffffffffffffffffffffffffffffffffffffffff16815260200190815260200160002060006101000a81548160ff0219169083151502179055506121d86121d2612699565b86612f67565b5050505050565b60105481565b600b6020528060005260406000206000915054906101000a900460ff1681565b61220d612699565b73ffffffffffffffffffffffffffffffffffffffff1661222b611757565b73ffffffffffffffffffffffffffffffffffffffff1614612281576040517f08c379a00000000000000000000000000000000000000000000000000000000081526004016122789061427b565b60405180910390fd5b80601260026101000a81548160ff02191690831515021790555050565b6000806703782dace9d900009050601260019054906101000a900460ff16156122d1576702c68af0bb1400009050612318565b600f83106122e9576702ea11e32ad500009050612317565b600a83106123015767033a0184a64740009050612316565b600583106123155767035d88771608400090505b5b5b5b80915050919050565b6000600760008473ffffffffffffffffffffffffffffffffffffffff1673ffffffffffffffffffffffffffffffffffffffff16815260200190815260200160002060008373ffffffffffffffffffffffffffffffffffffffff1673ffffffffffffffffffffffffffffffffffffffff16815260200190815260200160002060009054906101000a900460ff16905092915050565b816000811180156123c857506011548111155b612407576040517f08c379a00000000000000000000000000000000000000000000000000000000081526004016123fe906144fa565b60405180910390fd5b60105481612413610e06565b61241d919061451a565b111561245e576040517f08c379a0000000000000000000000000000000000000000000000000000000008152600401612455906145bc565b60405180910390fd5b612466612699565b73ffffffffffffffffffffffffffffffffffffffff16612484611757565b73ffffffffffffffffffffffffffffffffffffffff16146124da576040517f08c379a00000000000000000000000000000000000000000000000000000000081526004016124d19061427b565b60405180910390fd5b6124e48284612f67565b505050565b6124f1612699565b73ffffffffffffffffffffffffffffffffffffffff1661250f611757565b73ffffffffffffffffffffffffffffffffffffffff1614612565576040517f08c379a000000000000000000000000000000000000000000000000000000000815260040161255c9061427b565b60405180910390fd5b600073ffffffffffffffffffffffffffffffffffffffff168173ffffffffffffffffffffffffffffffffffffffff1614156125d5576040517f08c379a00000000000000000000000000000000000000000000000000000000081526004016125cc90614b84565b60405180910390fd5b6125de81612ea1565b50565b60007f01ffc9a7000000000000000000000000000000000000000000000000000000007bffffffffffffffffffffffffffffffffffffffffffffffffffffffff1916827bffffffffffffffffffffffffffffffffffffffffffffffffffffffff1916149050919050565b600081612656612753565b11158015612665575060005482105b8015612692575060046000838152602001908152602001600020600001601c9054906101000a900460ff16155b9050919050565b600033905090565b826006600084815260200190815260200160002060006101000a81548173ffffffffffffffffffffffffffffffffffffffff021916908373ffffffffffffffffffffffffffffffffffffffff160217905550818373ffffffffffffffffffffffffffffffffffffffff168273ffffffffffffffffffffffffffffffffffffffff167f8c5be1e5ebec7d5bd14f71427d1e84f3dd0314c0f7b2291e5b200ac8c7c3b92560405160405180910390a4505050565b60006001905090565b600061276782612c12565b90508373ffffffffffffffffffffffffffffffffffffffff16816000015173ffffffffffffffffffffffffffffffffffffffff16146127d2576040517fa114810000000000000000000000000000000000000000000000000000000000815260040160405180910390fd5b60008473ffffffffffffffffffffffffffffffffffffffff166127f3612699565b73ffffffffffffffffffffffffffffffffffffffff16148061282257506128218561281c612699565b612321565b5b806128675750612830612699565b73ffffffffffffffffffffffffffffffffffffffff1661284f84610b4a565b73ffffffffffffffffffffffffffffffffffffffff16145b9050806128a0576040517f59c896be00000000000000000000000000000000000000000000000000000000815260040160405180910390fd5b600073ffffffffffffffffffffffffffffffffffffffff168473ffffffffffffffffffffffffffffffffffffffff161415612907576040517fea553b3400000000000000000000000000000000000000000000000000000000815260040160405180910390fd5b6129148585856001613302565b612920600084876126a1565b6001600560008773ffffffffffffffffffffffffffffffffffffffff1673ffffffffffffffffffffffffffffffffffffffff16815260200190815260200160002060000160008282829054906101000a900467ffffffffffffffff160392506101000a81548167ffffffffffffffff021916908367ffffffffffffffff1602179055506001600560008673ffffffffffffffffffffffffffffffffffffffff1673ffffffffffffffffffffffffffffffffffffffff16815260200190815260200160002060000160008282829054906101000a900467ffffffffffffffff160192506101000a81548167ffffffffffffffff021916908367ffffffffffffffff1602179055506000600460008581526020019081526020016000209050848160000160006101000a81548173ffffffffffffffffffffffffffffffffffffffff021916908373ffffffffffffffffffffffffffffffffffffffff160217905550428160000160146101000a81548167ffffffffffffffff021916908367ffffffffffffffff16021790555060006001850190506000600460008381526020019081526020016000209050600073ffffffffffffffffffffffffffffffffffffffff168160000160009054906101000a900473ffffffffffffffffffffffffffffffffffffffff1673ffffffffffffffffffffffffffffffffffffffff161415612ba0576000548214612b9f57878160000160006101000a81548173ffffffffffffffffffffffffffffffffffffffff021916908373ffffffffffffffffffffffffffffffffffffffff16021790555084602001518160000160146101000a81548167ffffffffffffffff021916908367ffffffffffffffff1602179055505b5b505050828473ffffffffffffffffffffffffffffffffffffffff168673ffffffffffffffffffffffffffffffffffffffff167fddf252ad1be2c89b69c2b068fc378daa952ba7f163c4a11628f55a4df523b3ef60405160405180910390a4612c0b8585856001613308565b5050505050565b612c1a613827565b600082905080612c28612753565b11158015612c37575060005481105b15612e6a576000600460008381526020019081526020016000206040518060600160405290816000820160009054906101000a900473ffffffffffffffffffffffffffffffffffffffff1673ffffffffffffffffffffffffffffffffffffffff1673ffffffffffffffffffffffffffffffffffffffff1681526020016000820160149054906101000a900467ffffffffffffffff1667ffffffffffffffff1667ffffffffffffffff16815260200160008201601c9054906101000a900460ff16151515158152505090508060400151612e6857600073ffffffffffffffffffffffffffffffffffffffff16816000015173ffffffffffffffffffffffffffffffffffffffff1614612d4c578092505050612e9c565b5b600115612e6757818060019003925050600460008381526020019081526020016000206040518060600160405290816000820160009054906101000a900473ffffffffffffffffffffffffffffffffffffffff1673ffffffffffffffffffffffffffffffffffffffff1673ffffffffffffffffffffffffffffffffffffffff1681526020016000820160149054906101000a900467ffffffffffffffff1667ffffffffffffffff1667ffffffffffffffff16815260200160008201601c9054906101000a900460ff1615151515815250509050600073ffffffffffffffffffffffffffffffffffffffff16816000015173ffffffffffffffffffffffffffffffffffffffff1614612e62578092505050612e9c565b612d4d565b5b505b6040517fdf2d9b4200000000000000000000000000000000000000000000000000000000815260040160405180910390fd5b919050565b6000600860009054906101000a900473ffffffffffffffffffffffffffffffffffffffff16905081600860006101000a81548173ffffffffffffffffffffffffffffffffffffffff021916908373ffffffffffffffffffffffffffffffffffffffff1602179055508173ffffffffffffffffffffffffffffffffffffffff168173ffffffffffffffffffffffffffffffffffffffff167f8be0079c531659141344cd1fd0a4f28419497f9722a3daafe3b4186f6b6457e060405160405180910390a35050565b612f8182826040518060200160405280600081525061330e565b5050565b600080823b905060008111915050919050565b60008373ffffffffffffffffffffffffffffffffffffffff1663150b7a02612fbe612699565b8786866040518563ffffffff1660e01b8152600401612fe09493929190614bf9565b602060405180830381600087803b158015612ffa57600080fd5b505af192505050801561302b57506040513d601f19601f820116820180604052508101906130289190614c5a565b60015b6130a5573d806000811461305b576040519150601f19603f3d011682016040523d82523d6000602084013e613060565b606091505b5060008151141561309d576040517fd1a57ed600000000000000000000000000000000000000000000000000000000815260040160405180910390fd5b805181602001fd5b63150b7a0260e01b7bffffffffffffffffffffffffffffffffffffffffffffffffffffffff1916817bffffffffffffffffffffffffffffffffffffffffffffffffffffffff191614915050949350505050565b6060600c8054613107906141fd565b80601f0160208091040260200160405190810160405280929190818152602001828054613133906141fd565b80156131805780601f1061315557610100808354040283529160200191613180565b820191906000526020600020905b81548152906001019060200180831161316357829003601f168201915b5050505050905090565b606060008214156131d2576040518060400160405280600181526020017f300000000000000000000000000000000000000000000000000000000000000081525090506132e6565b600082905060005b600082146132045780806131ed90614465565b915050600a826131fd91906143bf565b91506131da565b60008167ffffffffffffffff8111156132205761321f613b70565b5b6040519080825280601f01601f1916602001820160405280156132525781602001600182028036833780820191505090505b5090505b600085146132df5760018261326b9190614c87565b9150600a8561327a9190614cbb565b6030613286919061451a565b60f81b81838151811061329c5761329b614436565b5b60200101907effffffffffffffffffffffffffffffffffffffffffffffffffffffffffffff1916908160001a905350600a856132d891906143bf565b9450613256565b8093505050505b919050565b6000826132f88584613320565b1490509392505050565b50505050565b50505050565b61331b83838360016133d3565b505050565b60008082905060005b84518110156133c857600085828151811061334757613346614436565b5b6020026020010151905080831161338857828160405160200161336b929190614d0d565b6040516020818303038152906040528051906020012092506133b4565b808360405160200161339b929190614d0d565b6040516020818303038152906040528051906020012092505b5080806133c090614465565b915050613329565b508091505092915050565b600080549050600073ffffffffffffffffffffffffffffffffffffffff168573ffffffffffffffffffffffffffffffffffffffff161415613440576040517f2e07630000000000000000000000000000000000000000000000000000000000815260040160405180910390fd5b600084141561347b576040517fb562e8dd00000000000000000000000000000000000000000000000000000000815260040160405180910390fd5b6134886000868387613302565b83600560008773ffffffffffffffffffffffffffffffffffffffff1673ffffffffffffffffffffffffffffffffffffffff16815260200190815260200160002060000160008282829054906101000a900467ffffffffffffffff160192506101000a81548167ffffffffffffffff021916908367ffffffffffffffff16021790555083600560008773ffffffffffffffffffffffffffffffffffffffff1673ffffffffffffffffffffffffffffffffffffffff16815260200190815260200160002060000160088282829054906101000a900467ffffffffffffffff160192506101000a81548167ffffffffffffffff021916908367ffffffffffffffff160217905550846004600083815260200190815260200160002060000160006101000a81548173ffffffffffffffffffffffffffffffffffffffff021916908373ffffffffffffffffffffffffffffffffffffffff160217905550426004600083815260200190815260200160002060000160146101000a81548167ffffffffffffffff021916908367ffffffffffffffff16021790555060008190506000858201905083801561365257506136518773ffffffffffffffffffffffffffffffffffffffff16612f85565b5b15613718575b818773ffffffffffffffffffffffffffffffffffffffff16600073ffffffffffffffffffffffffffffffffffffffff167fddf252ad1be2c89b69c2b068fc378daa952ba7f163c4a11628f55a4df523b3ef60405160405180910390a46136c76000888480600101955088612f98565b6136fd576040517fd1a57ed600000000000000000000000000000000000000000000000000000000815260040160405180910390fd5b8082141561365857826000541461371357600080fd5b613784565b5b818060010192508773ffffffffffffffffffffffffffffffffffffffff16600073ffffffffffffffffffffffffffffffffffffffff167fddf252ad1be2c89b69c2b068fc378daa952ba7f163c4a11628f55a4df523b3ef60405160405180910390a480821415613719575b81600081905550505061379a6000868387613308565b5050505050565b8280546137ad906141fd565b90600052602060002090601f0160209004810192826137cf5760008555613816565b82601f106137e857805160ff1916838001178555613816565b82800160010185558215613816579182015b828111156138155782518255916020019190600101906137fa565b5b509050613823919061386a565b5090565b6040518060600160405280600073ffffffffffffffffffffffffffffffffffffffff168152602001600067ffffffffffffffff1681526020016000151581525090565b5b8082111561388357600081600090555060010161386b565b5090565b6000604051905090565b600080fd5b600080fd5b60007fffffffff0000000000000000000000000000000000000000000000000000000082169050919050565b6138d08161389b565b81146138db57600080fd5b50565b6000813590506138ed816138c7565b92915050565b60006020828403121561390957613908613891565b5b6000613917848285016138de565b91505092915050565b60008115159050919050565b61393581613920565b82525050565b6000602082019050613950600083018461392c565b92915050565b600081519050919050565b600082825260208201905092915050565b60005b83811015613990578082015181840152602081019050613975565b8381111561399f576000848401525b50505050565b6000601f19601f8301169050919050565b60006139c182613956565b6139cb8185613961565b93506139db818560208601613972565b6139e4816139a5565b840191505092915050565b60006020820190508181036000830152613a0981846139b6565b905092915050565b6000819050919050565b613a2481613a11565b8114613a2f57600080fd5b50565b600081359050613a4181613a1b565b92915050565b600060208284031215613a5d57613a5c613891565b5b6000613a6b84828501613a32565b91505092915050565b600073ffffffffffffffffffffffffffffffffffffffff82169050919050565b6000613a9f82613a74565b9050919050565b613aaf81613a94565b82525050565b6000602082019050613aca6000830184613aa6565b92915050565b613ad981613a94565b8114613ae457600080fd5b50565b600081359050613af681613ad0565b92915050565b60008060408385031215613b1357613b12613891565b5b6000613b2185828601613ae7565b9250506020613b3285828601613a32565b9150509250929050565b613b4581613a11565b82525050565b6000602082019050613b606000830184613b3c565b92915050565b600080fd5b600080fd5b7f4e487b7100000000000000000000000000000000000000000000000000000000600052604160045260246000fd5b613ba8826139a5565b810181811067ffffffffffffffff82111715613bc757613bc6613b70565b5b80604052505050565b6000613bda613887565b9050613be68282613b9f565b919050565b600067ffffffffffffffff821115613c0657613c05613b70565b5b613c0f826139a5565b9050602081019050919050565b82818337600083830152505050565b6000613c3e613c3984613beb565b613bd0565b905082815260208101848484011115613c5a57613c59613b6b565b5b613c65848285613c1c565b509392505050565b600082601f830112613c8257613c81613b66565b5b8135613c92848260208601613c2b565b91505092915050565b600060208284031215613cb157613cb0613891565b5b600082013567ffffffffffffffff811115613ccf57613cce613896565b5b613cdb84828501613c6d565b91505092915050565b613ced81613920565b8114613cf857600080fd5b50565b600081359050613d0a81613ce4565b92915050565b600060208284031215613d2657613d25613891565b5b6000613d3484828501613cfb565b91505092915050565b600080600060608486031215613d5657613d55613891565b5b6000613d6486828701613ae7565b9350506020613d7586828701613ae7565b9250506040613d8686828701613a32565b9150509250925092565b6000819050919050565b613da381613d90565b82525050565b6000602082019050613dbe6000830184613d9a565b92915050565b600060208284031215613dda57613dd9613891565b5b6000613de884828501613ae7565b91505092915050565b600081519050919050565b600082825260208201905092915050565b6000819050602082019050919050565b613e2681613a11565b82525050565b6000613e388383613e1d565b60208301905092915050565b6000602082019050919050565b6000613e5c82613df1565b613e668185613dfc565b9350613e7183613e0d565b8060005b83811015613ea2578151613e898882613e2c565b9750613e9483613e44565b925050600181019050613e75565b5085935050505092915050565b60006020820190508181036000830152613ec98184613e51565b905092915050565b613eda81613d90565b8114613ee557600080fd5b50565b600081359050613ef781613ed1565b92915050565b600060208284031215613f1357613f12613891565b5b6000613f2184828501613ee8565b91505092915050565b60008060408385031215613f4157613f40613891565b5b6000613f4f85828601613ae7565b9250506020613f6085828601613cfb565b9150509250929050565b600067ffffffffffffffff821115613f8557613f84613b70565b5b613f8e826139a5565b9050602081019050919050565b6000613fae613fa984613f6a565b613bd0565b905082815260208101848484011115613fca57613fc9613b6b565b5b613fd5848285613c1c565b509392505050565b600082601f830112613ff257613ff1613b66565b5b8135614002848260208601613f9b565b91505092915050565b6000806000806080858703121561402557614024613891565b5b600061403387828801613ae7565b945050602061404487828801613ae7565b935050604061405587828801613a32565b925050606085013567ffffffffffffffff81111561407657614075613896565b5b61408287828801613fdd565b91505092959194509250565b600080fd5b600080fd5b60008083601f8401126140ae576140ad613b66565b5b8235905067ffffffffffffffff8111156140cb576140ca61408e565b5b6020830191508360208202830111156140e7576140e6614093565b5b9250929050565b60008060006040848603121561410757614106613891565b5b600061411586828701613a32565b935050602084013567ffffffffffffffff81111561413657614135613896565b5b61414286828701614098565b92509250509250925092565b6000806040838503121561416557614164613891565b5b600061417385828601613ae7565b925050602061418485828601613ae7565b9150509250929050565b600080604083850312156141a5576141a4613891565b5b60006141b385828601613a32565b92505060206141c485828601613ae7565b9150509250929050565b7f4e487b7100000000000000000000000000000000000000000000000000000000600052602260045260246000fd5b6000600282049050600182168061421557607f821691505b60208210811415614229576142286141ce565b5b50919050565b7f4f776e61626c653a2063616c6c6572206973206e6f7420746865206f776e6572600082015250565b6000614265602083613961565b91506142708261422f565b602082019050919050565b6000602082019050818103600083015261429481614258565b9050919050565b7f5265656e7472616e637947756172643a207265656e7472616e742063616c6c00600082015250565b60006142d1601f83613961565b91506142dc8261429b565b602082019050919050565b60006020820190508181036000830152614300816142c4565b9050919050565b7f4e487b7100000000000000000000000000000000000000000000000000000000600052601160045260246000fd5b600061434182613a11565b915061434c83613a11565b9250817fffffffffffffffffffffffffffffffffffffffffffffffffffffffffffffffff048311821515161561438557614384614307565b5b828202905092915050565b7f4e487b7100000000000000000000000000000000000000000000000000000000600052601260045260246000fd5b60006143ca82613a11565b91506143d583613a11565b9250826143e5576143e4614390565b5b828204905092915050565b600081905092915050565b50565b600061440b6000836143f0565b9150614416826143fb565b600082019050919050565b600061442c826143fe565b9150819050919050565b7f4e487b7100000000000000000000000000000000000000000000000000000000600052603260045260246000fd5b600061447082613a11565b91507fffffffffffffffffffffffffffffffffffffffffffffffffffffffffffffffff8214156144a3576144a2614307565b5b600182019050919050565b7f496e76616c6964206d696e7420616d6f756e7421000000000000000000000000600082015250565b60006144e4601483613961565b91506144ef826144ae565b602082019050919050565b60006020820190508181036000830152614513816144d7565b9050919050565b600061452582613a11565b915061453083613a11565b9250827fffffffffffffffffffffffffffffffffffffffffffffffffffffffffffffffff0382111561456557614564614307565b5b828201905092915050565b7f4d617820737570706c7920657863656564656421000000000000000000000000600082015250565b60006145a6601483613961565b91506145b182614570565b602082019050919050565b600060208201905081810360008301526145d581614599565b9050919050565b7f54686520636f6e74726163742069732070617573656421000000000000000000600082015250565b6000614612601783613961565b915061461d826145dc565b602082019050919050565b6000602082019050818103600083015261464181614605565b9050919050565b7f546865206d696e74206973206f6e6c792061636365737361626c6520666f722060008201527f57686974654c6973742100000000000000000000000000000000000000000000602082015250565b60006146a4602a83613961565b91506146af82614648565b604082019050919050565b600060208201905081810360008301526146d381614697565b9050919050565b7f5055424c49435f53414c453a204e6f7420656e6f7567682066756e6473000000600082015250565b6000614710601d83613961565b915061471b826146da565b602082019050919050565b6000602082019050818103600083015261473f81614703565b9050919050565b7f4552433732314d657461646174613a2055524920717565727920666f72206e6f60008201527f6e6578697374656e7420746f6b656e0000000000000000000000000000000000602082015250565b60006147a2602f83613961565b91506147ad82614746565b604082019050919050565b600060208201905081810360008301526147d181614795565b9050919050565b600081905092915050565b60006147ee82613956565b6147f881856147d8565b9350614808818560208601613972565b80840191505092915050565b60008190508160005260206000209050919050565b60008154614836816141fd565b61484081866147d8565b9450600182166000811461485b576001811461486c5761489f565b60ff1983168652818601935061489f565b61487585614814565b60005b8381101561489757815481890152600182019150602081019050614878565b838801955050505b50505092915050565b60006148b482866147e3565b91506148c082856147e3565b91506148cc8284614829565b9150819050949350505050565b7f5468652077686974656c6973742073616c65206973206e6f7420656e61626c6560008201527f6421000000000000000000000000000000000000000000000000000000000000602082015250565b6000614935602283613961565b9150614940826148d9565b604082019050919050565b6000602082019050818103600083015261496481614928565b9050919050565b7f4164647265737320616c726561647920636c61696d6564210000000000000000600082015250565b60006149a1601883613961565b91506149ac8261496b565b602082019050919050565b600060208201905081810360008301526149d081614994565b9050919050565b60008160601b9050919050565b60006149ef826149d7565b9050919050565b6000614a01826149e4565b9050919050565b614a19614a1482613a94565b6149f6565b82525050565b6000614a2b8284614a08565b60148201915081905092915050565b7f496e76616c69642070726f6f6621000000000000000000000000000000000000600082015250565b6000614a70600e83613961565b9150614a7b82614a3a565b602082019050919050565b60006020820190508181036000830152614a9f81614a63565b9050919050565b7f57484954454c4953545f53414c453a204e6f7420656e6f7567682066756e6473600082015250565b6000614adc602083613961565b9150614ae782614aa6565b602082019050919050565b60006020820190508181036000830152614b0b81614acf565b9050919050565b7f4f776e61626c653a206e6577206f776e657220697320746865207a65726f206160008201527f6464726573730000000000000000000000000000000000000000000000000000602082015250565b6000614b6e602683613961565b9150614b7982614b12565b604082019050919050565b60006020820190508181036000830152614b9d81614b61565b9050919050565b600081519050919050565b600082825260208201905092915050565b6000614bcb82614ba4565b614bd58185614baf565b9350614be5818560208601613972565b614bee816139a5565b840191505092915050565b6000608082019050614c0e6000830187613aa6565b614c1b6020830186613aa6565b614c286040830185613b3c565b8181036060830152614c3a8184614bc0565b905095945050505050565b600081519050614c54816138c7565b92915050565b600060208284031215614c7057614c6f613891565b5b6000614c7e84828501614c45565b91505092915050565b6000614c9282613a11565b9150614c9d83613a11565b925082821015614cb057614caf614307565b5b828203905092915050565b6000614cc682613a11565b9150614cd183613a11565b925082614ce157614ce0614390565b5b828206905092915050565b6000819050919050565b614d07614d0282613d90565b614cec565b82525050565b6000614d198285614cf6565b602082019150614d298284614cf6565b602082019150819050939250505056fea26469706673582212204f3fa9e8db270782cb106ed24240a198a0a46873c93e81a76ca02374c42cea7d64736f6c63430008090033",
  "linkReferences": {},
  "deployedLinkReferences": {}
}